{
  "_format": "hh-sol-artifact-1",
  "contractName": "MyGame",
  "sourceName": "contracts/MyGame.sol",
  "abi": [
    {
      "inputs": [
        {
          "internalType": "string[]",
          "name": "characterNames",
          "type": "string[]"
        },
        {
          "internalType": "string[]",
          "name": "characterImageURIs",
          "type": "string[]"
        },
        {
          "internalType": "uint256[]",
          "name": "characterHp",
          "type": "uint256[]"
        },
        {
          "internalType": "uint256[]",
          "name": "characterAttackDmg",
          "type": "uint256[]"
        },
        {
          "internalType": "uint256[]",
          "name": "characterMagicDmg",
          "type": "uint256[]"
        },
        {
          "internalType": "uint256[]",
          "name": "characterArmor",
          "type": "uint256[]"
        },
        {
          "internalType": "uint256[]",
          "name": "characterMagicResist",
          "type": "uint256[]"
        },
        {
          "internalType": "string[]",
          "name": "characterTeam",
          "type": "string[]"
        },
        {
          "internalType": "string[]",
          "name": "bossNameAndImageUri",
          "type": "string[]"
        },
        {
          "internalType": "uint256[]",
          "name": "bossStats",
          "type": "uint256[]"
        }
      ],
      "stateMutability": "nonpayable",
      "type": "constructor"
    },
    {
      "anonymous": false,
      "inputs": [
        {
          "indexed": true,
          "internalType": "address",
          "name": "owner",
          "type": "address"
        },
        {
          "indexed": true,
          "internalType": "address",
          "name": "approved",
          "type": "address"
        },
        {
          "indexed": true,
          "internalType": "uint256",
          "name": "tokenId",
          "type": "uint256"
        }
      ],
      "name": "Approval",
      "type": "event"
    },
    {
      "anonymous": false,
      "inputs": [
        {
          "indexed": true,
          "internalType": "address",
          "name": "owner",
          "type": "address"
        },
        {
          "indexed": true,
          "internalType": "address",
          "name": "operator",
          "type": "address"
        },
        {
          "indexed": false,
          "internalType": "bool",
          "name": "approved",
          "type": "bool"
        }
      ],
      "name": "ApprovalForAll",
      "type": "event"
    },
    {
      "anonymous": false,
      "inputs": [
        {
          "indexed": false,
          "internalType": "uint256",
          "name": "newTeemoHp",
          "type": "uint256"
        },
        {
          "indexed": false,
          "internalType": "uint256",
          "name": "newPlayerHp",
          "type": "uint256"
        }
      ],
      "name": "AttackComplete",
      "type": "event"
    },
    {
      "anonymous": false,
      "inputs": [
        {
          "indexed": false,
          "internalType": "address",
          "name": "sender",
          "type": "address"
        },
        {
          "indexed": false,
          "internalType": "uint256",
          "name": "tokenId",
          "type": "uint256"
        },
        {
          "indexed": false,
          "internalType": "uint256",
          "name": "characterIndex",
          "type": "uint256"
        }
      ],
      "name": "CharacterNFTMinted",
      "type": "event"
    },
    {
      "anonymous": false,
      "inputs": [
        {
          "indexed": true,
          "internalType": "address",
          "name": "from",
          "type": "address"
        },
        {
          "indexed": true,
          "internalType": "address",
          "name": "to",
          "type": "address"
        },
        {
          "indexed": true,
          "internalType": "uint256",
          "name": "tokenId",
          "type": "uint256"
        }
      ],
      "name": "Transfer",
      "type": "event"
    },
    {
      "inputs": [
        {
          "internalType": "address",
          "name": "to",
          "type": "address"
        },
        {
          "internalType": "uint256",
          "name": "tokenId",
          "type": "uint256"
        }
      ],
      "name": "approve",
      "outputs": [],
      "stateMutability": "nonpayable",
      "type": "function"
    },
    {
      "inputs": [],
      "name": "attackBoss",
      "outputs": [],
      "stateMutability": "nonpayable",
      "type": "function"
    },
    {
      "inputs": [
        {
          "internalType": "address",
          "name": "owner",
          "type": "address"
        }
      ],
      "name": "balanceOf",
      "outputs": [
        {
          "internalType": "uint256",
          "name": "",
          "type": "uint256"
        }
      ],
      "stateMutability": "view",
      "type": "function"
    },
    {
      "inputs": [],
      "name": "checkIfUserHasNFT",
      "outputs": [
        {
          "components": [
            {
              "internalType": "uint256",
              "name": "characterIndex",
              "type": "uint256"
            },
            {
              "internalType": "string",
              "name": "name",
              "type": "string"
            },
            {
              "internalType": "string",
              "name": "imageUri",
              "type": "string"
            },
            {
              "internalType": "uint256",
              "name": "hp",
              "type": "uint256"
            },
            {
              "internalType": "uint256",
              "name": "maxHp",
              "type": "uint256"
            },
            {
              "internalType": "uint256",
              "name": "attackDamage",
              "type": "uint256"
            },
            {
              "internalType": "uint256",
              "name": "magicDamage",
              "type": "uint256"
            },
            {
              "internalType": "uint256",
              "name": "armor",
              "type": "uint256"
            },
            {
              "internalType": "uint256",
              "name": "magicResist",
              "type": "uint256"
            },
            {
              "internalType": "string",
              "name": "team",
              "type": "string"
            }
          ],
          "internalType": "struct MyGame.CharacterAttributes",
          "name": "",
          "type": "tuple"
        }
      ],
      "stateMutability": "view",
      "type": "function"
    },
    {
      "inputs": [],
      "name": "getAllDefaultCharacters",
      "outputs": [
        {
          "components": [
            {
              "internalType": "uint256",
              "name": "characterIndex",
              "type": "uint256"
            },
            {
              "internalType": "string",
              "name": "name",
              "type": "string"
            },
            {
              "internalType": "string",
              "name": "imageUri",
              "type": "string"
            },
            {
              "internalType": "uint256",
              "name": "hp",
              "type": "uint256"
            },
            {
              "internalType": "uint256",
              "name": "maxHp",
              "type": "uint256"
            },
            {
              "internalType": "uint256",
              "name": "attackDamage",
              "type": "uint256"
            },
            {
              "internalType": "uint256",
              "name": "magicDamage",
              "type": "uint256"
            },
            {
              "internalType": "uint256",
              "name": "armor",
              "type": "uint256"
            },
            {
              "internalType": "uint256",
              "name": "magicResist",
              "type": "uint256"
            },
            {
              "internalType": "string",
              "name": "team",
              "type": "string"
            }
          ],
          "internalType": "struct MyGame.CharacterAttributes[]",
          "name": "",
          "type": "tuple[]"
        }
      ],
      "stateMutability": "view",
      "type": "function"
    },
    {
      "inputs": [
        {
          "internalType": "uint256",
          "name": "tokenId",
          "type": "uint256"
        }
      ],
      "name": "getApproved",
      "outputs": [
        {
          "internalType": "address",
          "name": "",
          "type": "address"
        }
      ],
      "stateMutability": "view",
      "type": "function"
    },
    {
      "inputs": [],
      "name": "getBoss",
      "outputs": [
        {
          "components": [
            {
              "internalType": "string",
              "name": "name",
              "type": "string"
            },
            {
              "internalType": "string",
              "name": "imageURI",
              "type": "string"
            },
            {
              "internalType": "uint256",
              "name": "hp",
              "type": "uint256"
            },
            {
              "internalType": "uint256",
              "name": "maxHp",
              "type": "uint256"
            },
            {
              "internalType": "uint256",
              "name": "attackDamage",
              "type": "uint256"
            },
            {
              "internalType": "uint256",
              "name": "magicDamage",
              "type": "uint256"
            },
            {
              "internalType": "uint256",
              "name": "armor",
              "type": "uint256"
            },
            {
              "internalType": "uint256",
              "name": "magicResist",
              "type": "uint256"
            }
          ],
          "internalType": "struct MyGame.Teemo",
          "name": "",
          "type": "tuple"
        }
      ],
      "stateMutability": "view",
      "type": "function"
    },
    {
      "inputs": [
        {
          "internalType": "address",
          "name": "owner",
          "type": "address"
        },
        {
          "internalType": "address",
          "name": "operator",
          "type": "address"
        }
      ],
      "name": "isApprovedForAll",
      "outputs": [
        {
          "internalType": "bool",
          "name": "",
          "type": "bool"
        }
      ],
      "stateMutability": "view",
      "type": "function"
    },
    {
      "inputs": [
        {
          "internalType": "uint256",
          "name": "_characterIndex",
          "type": "uint256"
        }
      ],
      "name": "mintCharacterNFT",
      "outputs": [],
      "stateMutability": "nonpayable",
      "type": "function"
    },
    {
      "inputs": [],
      "name": "name",
      "outputs": [
        {
          "internalType": "string",
          "name": "",
          "type": "string"
        }
      ],
      "stateMutability": "view",
      "type": "function"
    },
    {
      "inputs": [
        {
          "internalType": "uint256",
          "name": "",
          "type": "uint256"
        }
      ],
      "name": "nftHolderAttributes",
      "outputs": [
        {
          "internalType": "uint256",
          "name": "characterIndex",
          "type": "uint256"
        },
        {
          "internalType": "string",
          "name": "name",
          "type": "string"
        },
        {
          "internalType": "string",
          "name": "imageUri",
          "type": "string"
        },
        {
          "internalType": "uint256",
          "name": "hp",
          "type": "uint256"
        },
        {
          "internalType": "uint256",
          "name": "maxHp",
          "type": "uint256"
        },
        {
          "internalType": "uint256",
          "name": "attackDamage",
          "type": "uint256"
        },
        {
          "internalType": "uint256",
          "name": "magicDamage",
          "type": "uint256"
        },
        {
          "internalType": "uint256",
          "name": "armor",
          "type": "uint256"
        },
        {
          "internalType": "uint256",
          "name": "magicResist",
          "type": "uint256"
        },
        {
          "internalType": "string",
          "name": "team",
          "type": "string"
        }
      ],
      "stateMutability": "view",
      "type": "function"
    },
    {
      "inputs": [
        {
          "internalType": "address",
          "name": "",
          "type": "address"
        }
      ],
      "name": "nftHolders",
      "outputs": [
        {
          "internalType": "uint256",
          "name": "",
          "type": "uint256"
        }
      ],
      "stateMutability": "view",
      "type": "function"
    },
    {
      "inputs": [
        {
          "internalType": "uint256",
          "name": "tokenId",
          "type": "uint256"
        }
      ],
      "name": "ownerOf",
      "outputs": [
        {
          "internalType": "address",
          "name": "",
          "type": "address"
        }
      ],
      "stateMutability": "view",
      "type": "function"
    },
    {
      "inputs": [
        {
          "internalType": "address",
          "name": "from",
          "type": "address"
        },
        {
          "internalType": "address",
          "name": "to",
          "type": "address"
        },
        {
          "internalType": "uint256",
          "name": "tokenId",
          "type": "uint256"
        }
      ],
      "name": "safeTransferFrom",
      "outputs": [],
      "stateMutability": "nonpayable",
      "type": "function"
    },
    {
      "inputs": [
        {
          "internalType": "address",
          "name": "from",
          "type": "address"
        },
        {
          "internalType": "address",
          "name": "to",
          "type": "address"
        },
        {
          "internalType": "uint256",
          "name": "tokenId",
          "type": "uint256"
        },
        {
          "internalType": "bytes",
          "name": "_data",
          "type": "bytes"
        }
      ],
      "name": "safeTransferFrom",
      "outputs": [],
      "stateMutability": "nonpayable",
      "type": "function"
    },
    {
      "inputs": [
        {
          "internalType": "address",
          "name": "operator",
          "type": "address"
        },
        {
          "internalType": "bool",
          "name": "approved",
          "type": "bool"
        }
      ],
      "name": "setApprovalForAll",
      "outputs": [],
      "stateMutability": "nonpayable",
      "type": "function"
    },
    {
      "inputs": [
        {
          "internalType": "bytes4",
          "name": "interfaceId",
          "type": "bytes4"
        }
      ],
      "name": "supportsInterface",
      "outputs": [
        {
          "internalType": "bool",
          "name": "",
          "type": "bool"
        }
      ],
      "stateMutability": "view",
      "type": "function"
    },
    {
      "inputs": [],
      "name": "symbol",
      "outputs": [
        {
          "internalType": "string",
          "name": "",
          "type": "string"
        }
      ],
      "stateMutability": "view",
      "type": "function"
    },
    {
      "inputs": [],
      "name": "teemo",
      "outputs": [
        {
          "internalType": "string",
          "name": "name",
          "type": "string"
        },
        {
          "internalType": "string",
          "name": "imageURI",
          "type": "string"
        },
        {
          "internalType": "uint256",
          "name": "hp",
          "type": "uint256"
        },
        {
          "internalType": "uint256",
          "name": "maxHp",
          "type": "uint256"
        },
        {
          "internalType": "uint256",
          "name": "attackDamage",
          "type": "uint256"
        },
        {
          "internalType": "uint256",
          "name": "magicDamage",
          "type": "uint256"
        },
        {
          "internalType": "uint256",
          "name": "armor",
          "type": "uint256"
        },
        {
          "internalType": "uint256",
          "name": "magicResist",
          "type": "uint256"
        }
      ],
      "stateMutability": "view",
      "type": "function"
    },
    {
      "inputs": [
        {
          "internalType": "uint256",
          "name": "_tokenId",
          "type": "uint256"
        }
      ],
      "name": "tokenURI",
      "outputs": [
        {
          "internalType": "string",
          "name": "",
          "type": "string"
        }
      ],
      "stateMutability": "view",
      "type": "function"
    },
    {
      "inputs": [
        {
          "internalType": "address",
          "name": "from",
          "type": "address"
        },
        {
          "internalType": "address",
          "name": "to",
          "type": "address"
        },
        {
          "internalType": "uint256",
          "name": "tokenId",
          "type": "uint256"
        }
      ],
      "name": "transferFrom",
      "outputs": [],
      "stateMutability": "nonpayable",
      "type": "function"
    }
  ],
  "bytecode": "0x60806040523480156200001157600080fd5b50604051620065a0380380620065a0833981810160405281019062000037919062000eb2565b6040518060400160405280600781526020017f436174646f6773000000000000000000000000000000000000000000000000008152506040518060400160405280600481526020017f43544447000000000000000000000000000000000000000000000000000000008152508160009080519060200190620000bb92919062000c45565b508060019080519060200190620000d492919062000c45565b50505060005b8a518110156200070857600f6040518061014001604052808381526020018d848151811062000132577f4e487b7100000000000000000000000000000000000000000000000000000000600052603260045260246000fd5b602002602001015181526020018c848151811062000179577f4e487b7100000000000000000000000000000000000000000000000000000000600052603260045260246000fd5b602002602001015181526020018b8481518110620001c0577f4e487b7100000000000000000000000000000000000000000000000000000000600052603260045260246000fd5b602002602001015181526020018b848151811062000207577f4e487b7100000000000000000000000000000000000000000000000000000000600052603260045260246000fd5b602002602001015181526020018a84815181106200024e577f4e487b7100000000000000000000000000000000000000000000000000000000600052603260045260246000fd5b6020026020010151815260200189848151811062000295577f4e487b7100000000000000000000000000000000000000000000000000000000600052603260045260246000fd5b60200260200101518152602001888481518110620002dc577f4e487b7100000000000000000000000000000000000000000000000000000000600052603260045260246000fd5b6020026020010151815260200187848151811062000323577f4e487b7100000000000000000000000000000000000000000000000000000000600052603260045260246000fd5b602002602001015181526020018684815181106200036a577f4e487b7100000000000000000000000000000000000000000000000000000000600052603260045260246000fd5b602002602001015181525090806001815401808255809150506001900390600052602060002090600a0201600090919091909150600082015181600001556020820151816001019080519060200190620003c692919062000c45565b506040820151816002019080519060200190620003e592919062000c45565b50606082015181600301556080820151816004015560a0820151816005015560c0820151816006015560e0820151816007015561010082015181600801556101208201518160090190805190602001906200044292919062000c45565b5050506000600f828154811062000482577f4e487b7100000000000000000000000000000000000000000000000000000000600052603260045260246000fd5b90600052602060002090600a02016040518061014001604052908160008201548152602001600182018054620004b890620012ce565b80601f0160208091040260200160405190810160405280929190818152602001828054620004e690620012ce565b8015620005375780601f106200050b5761010080835404028352916020019162000537565b820191906000526020600020905b8154815290600101906020018083116200051957829003601f168201915b505050505081526020016002820180546200055290620012ce565b80601f01602080910402602001604051908101604052809291908181526020018280546200058090620012ce565b8015620005d15780601f10620005a557610100808354040283529160200191620005d1565b820191906000526020600020905b815481529060010190602001808311620005b357829003601f168201915b505050505081526020016003820154815260200160048201548152602001600582015481526020016006820154815260200160078201548152602001600882015481526020016009820180546200062890620012ce565b80601f01602080910402602001604051908101604052809291908181526020018280546200065690620012ce565b8015620006a75780601f106200067b57610100808354040283529160200191620006a7565b820191906000526020600020905b8154815290600101906020018083116200068957829003601f168201915b5050505050815250509050620006f0604051806060016040528060268152602001620065506026913982602001518360600151846040015162000b5a60201b620022b31760201c565b5060018162000700919062001231565b9050620000da565b5062000720600e62000c0660201b620023551760201c565b6040518061010001604052808360008151811062000767577f4e487b7100000000000000000000000000000000000000000000000000000000600052603260045260246000fd5b6020026020010151815260200183600181518110620007af577f4e487b7100000000000000000000000000000000000000000000000000000000600052603260045260246000fd5b6020026020010151815260200182600081518110620007f7577f4e487b7100000000000000000000000000000000000000000000000000000000600052603260045260246000fd5b60200260200101518152602001826000815181106200083f577f4e487b7100000000000000000000000000000000000000000000000000000000600052603260045260246000fd5b602002602001015181526020018260018151811062000887577f4e487b7100000000000000000000000000000000000000000000000000000000600052603260045260246000fd5b6020026020010151815260200182600281518110620008cf577f4e487b7100000000000000000000000000000000000000000000000000000000600052603260045260246000fd5b602002602001015181526020018260038151811062000917577f4e487b7100000000000000000000000000000000000000000000000000000000600052603260045260246000fd5b60200260200101518152602001826004815181106200095f577f4e487b7100000000000000000000000000000000000000000000000000000000600052603260045260246000fd5b6020026020010151815250600660008201518160000190805190602001906200098a92919062000c45565b506020820151816001019080519060200190620009a992919062000c45565b5060408201518160020155606082015181600301556080820151816004015560a0820151816005015560c0820151816006015560e0820151816007015590505062000b4a6040518060600160405280602a815260200162006576602a91396006600001805462000a1990620012ce565b80601f016020809104026020016040519081016040528092919081815260200182805462000a4790620012ce565b801562000a985780601f1062000a6c5761010080835404028352916020019162000a98565b820191906000526020600020905b81548152906001019060200180831162000a7a57829003601f168201915b50505050506006600201546006600101805462000ab590620012ce565b80601f016020809104026020016040519081016040528092919081815260200182805462000ae390620012ce565b801562000b345780601f1062000b085761010080835404028352916020019162000b34565b820191906000526020600020905b81548152906001019060200180831162000b1657829003601f168201915b505050505062000b5a60201b620022b31760201c565b50505050505050505050620013bc565b62000c008484848460405160240162000b779493929190620010ee565b6040516020818303038152906040527f8d142cdd000000000000000000000000000000000000000000000000000000007bffffffffffffffffffffffffffffffffffffffffffffffffffffffff19166020820180517bffffffffffffffffffffffffffffffffffffffffffffffffffffffff838183161783525050505062000c1c60201b60201c565b50505050565b6001816000016000828254019250508190555050565b60008151905060006a636f6e736f6c652e6c6f679050602083016000808483855afa5050505050565b82805462000c5390620012ce565b90600052602060002090601f01602090048101928262000c77576000855562000cc3565b82601f1062000c9257805160ff191683800117855562000cc3565b8280016001018555821562000cc3579182015b8281111562000cc257825182559160200191906001019062000ca5565b5b50905062000cd2919062000cd6565b5090565b5b8082111562000cf157600081600090555060010162000cd7565b5090565b600062000d0c62000d068462001184565b62001150565b9050808382526020820190508260005b8581101562000d50578151850162000d35888262000e6e565b84526020840193506020830192505060018101905062000d1c565b5050509392505050565b600062000d7162000d6b84620011b3565b62001150565b9050808382526020820190508285602086028201111562000d9157600080fd5b60005b8581101562000dc5578162000daa888262000e9b565b84526020840193506020830192505060018101905062000d94565b5050509392505050565b600062000de662000de084620011e2565b62001150565b90508281526020810184848401111562000dff57600080fd5b62000e0c84828562001298565b509392505050565b600082601f83011262000e2657600080fd5b815162000e3884826020860162000cf5565b91505092915050565b600082601f83011262000e5357600080fd5b815162000e6584826020860162000d5a565b91505092915050565b600082601f83011262000e8057600080fd5b815162000e9284826020860162000dcf565b91505092915050565b60008151905062000eac81620013a2565b92915050565b6000806000806000806000806000806101408b8d03121562000ed357600080fd5b60008b015167ffffffffffffffff81111562000eee57600080fd5b62000efc8d828e0162000e14565b9a505060208b015167ffffffffffffffff81111562000f1a57600080fd5b62000f288d828e0162000e14565b99505060408b015167ffffffffffffffff81111562000f4657600080fd5b62000f548d828e0162000e41565b98505060608b015167ffffffffffffffff81111562000f7257600080fd5b62000f808d828e0162000e41565b97505060808b015167ffffffffffffffff81111562000f9e57600080fd5b62000fac8d828e0162000e41565b96505060a08b015167ffffffffffffffff81111562000fca57600080fd5b62000fd88d828e0162000e41565b95505060c08b015167ffffffffffffffff81111562000ff657600080fd5b620010048d828e0162000e41565b94505060e08b015167ffffffffffffffff8111156200102257600080fd5b620010308d828e0162000e14565b9350506101008b015167ffffffffffffffff8111156200104f57600080fd5b6200105d8d828e0162000e14565b9250506101208b015167ffffffffffffffff8111156200107c57600080fd5b6200108a8d828e0162000e41565b9150509295989b9194979a5092959850565b6000620010a98262001215565b620010b5818562001220565b9350620010c781856020860162001298565b620010d28162001391565b840191505092915050565b620010e8816200128e565b82525050565b600060808201905081810360008301526200110a81876200109c565b905081810360208301526200112081866200109c565b9050620011316040830185620010dd565b81810360608301526200114581846200109c565b905095945050505050565b6000604051905081810181811067ffffffffffffffff821117156200117a576200117962001362565b5b8060405250919050565b600067ffffffffffffffff821115620011a257620011a162001362565b5b602082029050602081019050919050565b600067ffffffffffffffff821115620011d157620011d062001362565b5b602082029050602081019050919050565b600067ffffffffffffffff8211156200120057620011ff62001362565b5b601f19601f8301169050602081019050919050565b600081519050919050565b600082825260208201905092915050565b60006200123e826200128e565b91506200124b836200128e565b9250827fffffffffffffffffffffffffffffffffffffffffffffffffffffffffffffffff0382111562001283576200128262001304565b5b828201905092915050565b6000819050919050565b60005b83811015620012b85780820151818401526020810190506200129b565b83811115620012c8576000848401525b50505050565b60006002820490506001821680620012e757607f821691505b60208210811415620012fe57620012fd62001333565b5b50919050565b7f4e487b7100000000000000000000000000000000000000000000000000000000600052601160045260246000fd5b7f4e487b7100000000000000000000000000000000000000000000000000000000600052602260045260246000fd5b7f4e487b7100000000000000000000000000000000000000000000000000000000600052604160045260246000fd5b6000601f19601f8301169050919050565b620013ad816200128e565b8114620013b957600080fd5b50565b61518480620013cc6000396000f3fe608060405234801561001057600080fd5b50600436106101375760003560e01c806398da4c95116100b8578063c87b56dd1161007c578063c87b56dd14610369578063c8cf27f414610399578063d4f24c5b146103b7578063e985e9c5146103c1578063f4ce1df6146103f1578063f8b81ef71461041657610137565b806398da4c95146102bc578063a22cb465146102f5578063b88d4fde14610311578063b953084e1461032d578063c76d9e7d1461034b57610137565b806342842e0e116100ff57806342842e0e146101f25780636352211e1461020e57806370a082311461023e5780637df124a11461026e57806395d89b411461029e57610137565b806301ffc9a71461013c57806306fdde031461016c578063081812fc1461018a578063095ea7b3146101ba57806323b872dd146101d6575b600080fd5b61015660048036038101906101519190613659565b610432565b60405161016391906146db565b60405180910390f35b610174610514565b60405161018191906146f6565b60405180910390f35b6101a4600480360381019061019f91906136ab565b6105a6565b6040516101b19190614652565b60405180910390f35b6101d460048036038101906101cf919061361d565b61062b565b005b6101f060048036038101906101eb9190613517565b610743565b005b61020c60048036038101906102079190613517565b6107a3565b005b610228600480360381019061022391906136ab565b6107c3565b6040516102359190614652565b60405180910390f35b610258600480360381019061025391906134b2565b610875565b6040516102659190614b0c565b60405180910390f35b610288600480360381019061028391906134b2565b61092d565b6040516102959190614b0c565b60405180910390f35b6102a6610945565b6040516102b391906146f6565b60405180910390f35b6102d660048036038101906102d191906136ab565b6109d7565b6040516102ec9a99989796959493929190614b27565b60405180910390f35b61030f600480360381019061030a91906135e1565b610bc3565b005b61032b60048036038101906103269190613566565b610d44565b005b610335610da6565b60405161034291906146b9565b60405180910390f35b610353611002565b6040516103609190614aea565b60405180910390f35b610383600480360381019061037e91906136ab565b61117d565b60405161039091906146f6565b60405180910390f35b6103a1611493565b6040516103ae9190614ac8565b60405180910390f35b6103bf61171c565b005b6103db60048036038101906103d691906134db565b611b16565b6040516103e891906146db565b60405180910390f35b6103f9611baa565b60405161040d9897969594939291906147ee565b60405180910390f35b610430600480360381019061042b91906136ab565b611cf0565b005b60007f80ac58cd000000000000000000000000000000000000000000000000000000007bffffffffffffffffffffffffffffffffffffffffffffffffffffffff1916827bffffffffffffffffffffffffffffffffffffffffffffffffffffffff191614806104fd57507f5b5e139f000000000000000000000000000000000000000000000000000000007bffffffffffffffffffffffffffffffffffffffffffffffffffffffff1916827bffffffffffffffffffffffffffffffffffffffffffffffffffffffff1916145b8061050d575061050c8261236b565b5b9050919050565b60606000805461052390614eba565b80601f016020809104026020016040519081016040528092919081815260200182805461054f90614eba565b801561059c5780601f106105715761010080835404028352916020019161059c565b820191906000526020600020905b81548152906001019060200180831161057f57829003601f168201915b5050505050905090565b60006105b1826123d5565b6105f0576040517f08c379a00000000000000000000000000000000000000000000000000000000081526004016105e790614a28565b60405180910390fd5b6004600083815260200190815260200160002060009054906101000a900473ffffffffffffffffffffffffffffffffffffffff169050919050565b6000610636826107c3565b90508073ffffffffffffffffffffffffffffffffffffffff168373ffffffffffffffffffffffffffffffffffffffff1614156106a7576040517f08c379a000000000000000000000000000000000000000000000000000000000815260040161069e90614a88565b60405180910390fd5b8073ffffffffffffffffffffffffffffffffffffffff166106c6612441565b73ffffffffffffffffffffffffffffffffffffffff1614806106f557506106f4816106ef612441565b611b16565b5b610734576040517f08c379a000000000000000000000000000000000000000000000000000000000815260040161072b90614988565b60405180910390fd5b61073e8383612449565b505050565b61075461074e612441565b82612502565b610793576040517f08c379a000000000000000000000000000000000000000000000000000000000815260040161078a90614aa8565b60405180910390fd5b61079e8383836125e0565b505050565b6107be83838360405180602001604052806000815250610d44565b505050565b6000806002600084815260200190815260200160002060009054906101000a900473ffffffffffffffffffffffffffffffffffffffff169050600073ffffffffffffffffffffffffffffffffffffffff168173ffffffffffffffffffffffffffffffffffffffff16141561086c576040517f08c379a0000000000000000000000000000000000000000000000000000000008152600401610863906149c8565b60405180910390fd5b80915050919050565b60008073ffffffffffffffffffffffffffffffffffffffff168273ffffffffffffffffffffffffffffffffffffffff1614156108e6576040517f08c379a00000000000000000000000000000000000000000000000000000000081526004016108dd906149a8565b60405180910390fd5b600360008373ffffffffffffffffffffffffffffffffffffffff1673ffffffffffffffffffffffffffffffffffffffff168152602001908152602001600020549050919050565b60116020528060005260406000206000915090505481565b60606001805461095490614eba565b80601f016020809104026020016040519081016040528092919081815260200182805461098090614eba565b80156109cd5780601f106109a2576101008083540402835291602001916109cd565b820191906000526020600020905b8154815290600101906020018083116109b057829003601f168201915b5050505050905090565b6010602052806000526040600020600091509050806000015490806001018054610a0090614eba565b80601f0160208091040260200160405190810160405280929190818152602001828054610a2c90614eba565b8015610a795780601f10610a4e57610100808354040283529160200191610a79565b820191906000526020600020905b815481529060010190602001808311610a5c57829003601f168201915b505050505090806002018054610a8e90614eba565b80601f0160208091040260200160405190810160405280929190818152602001828054610aba90614eba565b8015610b075780601f10610adc57610100808354040283529160200191610b07565b820191906000526020600020905b815481529060010190602001808311610aea57829003601f168201915b505050505090806003015490806004015490806005015490806006015490806007015490806008015490806009018054610b4090614eba565b80601f0160208091040260200160405190810160405280929190818152602001828054610b6c90614eba565b8015610bb95780601f10610b8e57610100808354040283529160200191610bb9565b820191906000526020600020905b815481529060010190602001808311610b9c57829003601f168201915b505050505090508a565b610bcb612441565b73ffffffffffffffffffffffffffffffffffffffff168273ffffffffffffffffffffffffffffffffffffffff161415610c39576040517f08c379a0000000000000000000000000000000000000000000000000000000008152600401610c3090614948565b60405180910390fd5b8060056000610c46612441565b73ffffffffffffffffffffffffffffffffffffffff1673ffffffffffffffffffffffffffffffffffffffff16815260200190815260200160002060008473ffffffffffffffffffffffffffffffffffffffff1673ffffffffffffffffffffffffffffffffffffffff16815260200190815260200160002060006101000a81548160ff0219169083151502179055508173ffffffffffffffffffffffffffffffffffffffff16610cf3612441565b73ffffffffffffffffffffffffffffffffffffffff167f17307eab39ab6107e8899845ad3d59bd9653f200f220920489ca2b5937696c3183604051610d3891906146db565b60405180910390a35050565b610d55610d4f612441565b83612502565b610d94576040517f08c379a0000000000000000000000000000000000000000000000000000000008152600401610d8b90614aa8565b60405180910390fd5b610da08484848461283c565b50505050565b6060600f805480602002602001604051908101604052809291908181526020016000905b82821015610ff957838290600052602060002090600a02016040518061014001604052908160008201548152602001600182018054610e0890614eba565b80601f0160208091040260200160405190810160405280929190818152602001828054610e3490614eba565b8015610e815780601f10610e5657610100808354040283529160200191610e81565b820191906000526020600020905b815481529060010190602001808311610e6457829003601f168201915b50505050508152602001600282018054610e9a90614eba565b80601f0160208091040260200160405190810160405280929190818152602001828054610ec690614eba565b8015610f135780601f10610ee857610100808354040283529160200191610f13565b820191906000526020600020905b815481529060010190602001808311610ef657829003601f168201915b50505050508152602001600382015481526020016004820154815260200160058201548152602001600682015481526020016007820154815260200160088201548152602001600982018054610f6890614eba565b80601f0160208091040260200160405190810160405280929190818152602001828054610f9490614eba565b8015610fe15780601f10610fb657610100808354040283529160200191610fe1565b820191906000526020600020905b815481529060010190602001808311610fc457829003601f168201915b50505050508152505081526020019060010190610dca565b50505050905090565b61100a6132a6565b60066040518061010001604052908160008201805461102890614eba565b80601f016020809104026020016040519081016040528092919081815260200182805461105490614eba565b80156110a15780601f10611076576101008083540402835291602001916110a1565b820191906000526020600020905b81548152906001019060200180831161108457829003601f168201915b505050505081526020016001820180546110ba90614eba565b80601f01602080910402602001604051908101604052809291908181526020018280546110e690614eba565b80156111335780601f1061110857610100808354040283529160200191611133565b820191906000526020600020905b81548152906001019060200180831161111657829003601f168201915b505050505081526020016002820154815260200160038201548152602001600482015481526020016005820154815260200160068201548152602001600782015481525050905090565b606060006010600084815260200190815260200160002060405180610140016040529081600082015481526020016001820180546111ba90614eba565b80601f01602080910402602001604051908101604052809291908181526020018280546111e690614eba565b80156112335780601f1061120857610100808354040283529160200191611233565b820191906000526020600020905b81548152906001019060200180831161121657829003601f168201915b5050505050815260200160028201805461124c90614eba565b80601f016020809104026020016040519081016040528092919081815260200182805461127890614eba565b80156112c55780601f1061129a576101008083540402835291602001916112c5565b820191906000526020600020905b8154815290600101906020018083116112a857829003601f168201915b5050505050815260200160038201548152602001600482015481526020016005820154815260200160068201548152602001600782015481526020016008820154815260200160098201805461131a90614eba565b80601f016020809104026020016040519081016040528092919081815260200182805461134690614eba565b80156113935780601f1061136857610100808354040283529160200191611393565b820191906000526020600020905b81548152906001019060200180831161137657829003601f168201915b505050505081525050905060006113ad8260600151612898565b905060006113be8360800151612898565b905060006113cf8460a00151612898565b905060006113e08560c00151612898565b905060006113f18660e00151612898565b90506000611403876101000151612898565b905060008761012001519050600061145b89602001516114228d612898565b8b604001518b8b8b8b8b8b8b6040516020016114479a999897969594939291906144f4565b604051602081830303815290604052612a45565b90506000816040516020016114709190614630565b6040516020818303038152906040529050809a5050505050505050505050919050565b61149b6132eb565b6000601160003373ffffffffffffffffffffffffffffffffffffffff1673ffffffffffffffffffffffffffffffffffffffff168152602001908152602001600020549050600081111561170b5760106000828152602001908152602001600020604051806101400160405290816000820154815260200160018201805461152190614eba565b80601f016020809104026020016040519081016040528092919081815260200182805461154d90614eba565b801561159a5780601f1061156f5761010080835404028352916020019161159a565b820191906000526020600020905b81548152906001019060200180831161157d57829003601f168201915b505050505081526020016002820180546115b390614eba565b80601f01602080910402602001604051908101604052809291908181526020018280546115df90614eba565b801561162c5780601f106116015761010080835404028352916020019161162c565b820191906000526020600020905b81548152906001019060200180831161160f57829003601f168201915b5050505050815260200160038201548152602001600482015481526020016005820154815260200160068201548152602001600782015481526020016008820154815260200160098201805461168190614eba565b80601f01602080910402602001604051908101604052809291908181526020018280546116ad90614eba565b80156116fa5780601f106116cf576101008083540402835291602001916116fa565b820191906000526020600020905b8154815290600101906020018083116116dd57829003601f168201915b505050505081525050915050611719565b6117136132eb565b80925050505b90565b6000601160003373ffffffffffffffffffffffffffffffffffffffff1673ffffffffffffffffffffffffffffffffffffffff1681526020019081526020016000205490506000601060008381526020019081526020016000209050611825604051806060016040528060288152602001615127602891398260010180546117a290614eba565b80601f01602080910402602001604051908101604052809291908181526020018280546117ce90614eba565b801561181b5780601f106117f05761010080835404028352916020019161181b565b820191906000526020600020905b8154815290600101906020018083116117fe57829003601f168201915b5050505050612c03565b6118f76040518060400160405280601181526020017f426f7373202573206861732025732048500000000000000000000000000000008152506006600001805461186e90614eba565b80601f016020809104026020016040519081016040528092919081815260200182805461189a90614eba565b80156118e75780601f106118bc576101008083540402835291602001916118e7565b820191906000526020600020905b8154815290600101906020018083116118ca57829003601f168201915b5050505050600660020154612c9f565b600081600301541161193e576040517f08c379a000000000000000000000000000000000000000000000000000000000815260040161193590614a68565b60405180910390fd5b600060066002015411611986576040517f08c379a000000000000000000000000000000000000000000000000000000000815260040161197d90614a08565b60405180910390fd5b60006006800154826005015461199c9190614dd0565b905060008110156119ac57600090505b600060066007015483600601546119c39190614dd0565b905060008110156119d357600090505b600081836119e19190614cef565b9050806006600201541015611a00576000600660020181905550611a1b565b80600660020154611a119190614dd0565b6006600201819055505b8360070154600660040154611a309190614dd0565b92506000831015611a4057600092505b8360080154600660050154611a559190614dd0565b91506000821015611a6557600091505b8183611a719190614cef565b90508084600301541015611a8e5760008460030181905550611aa7565b808460030154611a9e9190614dd0565b84600301819055505b611acd604051806060016040528060298152602001615090602991398560030154612d3e565b7f838ab28464562786a6c4ab2311964b82fa60bd9b14aa7e856af1f3f18d41a4146006600201548560030154604051611b07929190614bd8565b60405180910390a15050505050565b6000600560008473ffffffffffffffffffffffffffffffffffffffff1673ffffffffffffffffffffffffffffffffffffffff16815260200190815260200160002060008373ffffffffffffffffffffffffffffffffffffffff1673ffffffffffffffffffffffffffffffffffffffff16815260200190815260200160002060009054906101000a900460ff16905092915050565b6006806000018054611bbb90614eba565b80601f0160208091040260200160405190810160405280929190818152602001828054611be790614eba565b8015611c345780601f10611c0957610100808354040283529160200191611c34565b820191906000526020600020905b815481529060010190602001808311611c1757829003601f168201915b505050505090806001018054611c4990614eba565b80601f0160208091040260200160405190810160405280929190818152602001828054611c7590614eba565b8015611cc25780601f10611c9757610100808354040283529160200191611cc2565b820191906000526020600020905b815481529060010190602001808311611ca557829003601f168201915b5050505050908060020154908060030154908060040154908060050154908060060154908060070154905088565b6000611cfc600e612dda565b9050611d083382612de8565b604051806101400160405280838152602001600f8481548110611d54577f4e487b7100000000000000000000000000000000000000000000000000000000600052603260045260246000fd5b90600052602060002090600a02016001018054611d7090614eba565b80601f0160208091040260200160405190810160405280929190818152602001828054611d9c90614eba565b8015611de95780601f10611dbe57610100808354040283529160200191611de9565b820191906000526020600020905b815481529060010190602001808311611dcc57829003601f168201915b50505050508152602001600f8481548110611e2d577f4e487b7100000000000000000000000000000000000000000000000000000000600052603260045260246000fd5b90600052602060002090600a02016002018054611e4990614eba565b80601f0160208091040260200160405190810160405280929190818152602001828054611e7590614eba565b8015611ec25780601f10611e9757610100808354040283529160200191611ec2565b820191906000526020600020905b815481529060010190602001808311611ea557829003601f168201915b50505050508152602001600f8481548110611f06577f4e487b7100000000000000000000000000000000000000000000000000000000600052603260045260246000fd5b90600052602060002090600a0201600301548152602001600f8481548110611f57577f4e487b7100000000000000000000000000000000000000000000000000000000600052603260045260246000fd5b90600052602060002090600a0201600301548152602001600f8481548110611fa8577f4e487b7100000000000000000000000000000000000000000000000000000000600052603260045260246000fd5b90600052602060002090600a0201600501548152602001600f8481548110611ff9577f4e487b7100000000000000000000000000000000000000000000000000000000600052603260045260246000fd5b90600052602060002090600a0201600601548152602001600f848154811061204a577f4e487b7100000000000000000000000000000000000000000000000000000000600052603260045260246000fd5b90600052602060002090600a0201600701548152602001600f848154811061209b577f4e487b7100000000000000000000000000000000000000000000000000000000600052603260045260246000fd5b90600052602060002090600a0201600801548152602001600f84815481106120ec577f4e487b7100000000000000000000000000000000000000000000000000000000600052603260045260246000fd5b90600052602060002090600a0201600901805461210890614eba565b80601f016020809104026020016040519081016040528092919081815260200182805461213490614eba565b80156121815780601f1061215657610100808354040283529160200191612181565b820191906000526020600020905b81548152906001019060200180831161216457829003601f168201915b5050505050815250601060008381526020019081526020016000206000820151816000015560208201518160010190805190602001906121c292919061333e565b5060408201518160020190805190602001906121df92919061333e565b50606082015181600301556080820151816004015560a0820151816005015560c0820151816006015560e08201518160070155610100820151816008015561012082015181600901908051906020019061223a92919061333e565b509050506122616040518060600160405280602e81526020016150f9602e91398284612e06565b80601160003373ffffffffffffffffffffffffffffffffffffffff1673ffffffffffffffffffffffffffffffffffffffff168152602001908152602001600020819055506122af600e612355565b5050565b61234f848484846040516024016122cd9493929190614794565b6040516020818303038152906040527f8d142cdd000000000000000000000000000000000000000000000000000000007bffffffffffffffffffffffffffffffffffffffffffffffffffffffff19166020820180517bffffffffffffffffffffffffffffffffffffffffffffffffffffffff8381831617835250505050612ea5565b50505050565b6001816000016000828254019250508190555050565b60007f01ffc9a7000000000000000000000000000000000000000000000000000000007bffffffffffffffffffffffffffffffffffffffffffffffffffffffff1916827bffffffffffffffffffffffffffffffffffffffffffffffffffffffff1916149050919050565b60008073ffffffffffffffffffffffffffffffffffffffff166002600084815260200190815260200160002060009054906101000a900473ffffffffffffffffffffffffffffffffffffffff1673ffffffffffffffffffffffffffffffffffffffff1614159050919050565b600033905090565b816004600083815260200190815260200160002060006101000a81548173ffffffffffffffffffffffffffffffffffffffff021916908373ffffffffffffffffffffffffffffffffffffffff160217905550808273ffffffffffffffffffffffffffffffffffffffff166124bc836107c3565b73ffffffffffffffffffffffffffffffffffffffff167f8c5be1e5ebec7d5bd14f71427d1e84f3dd0314c0f7b2291e5b200ac8c7c3b92560405160405180910390a45050565b600061250d826123d5565b61254c576040517f08c379a000000000000000000000000000000000000000000000000000000000815260040161254390614968565b60405180910390fd5b6000612557836107c3565b90508073ffffffffffffffffffffffffffffffffffffffff168473ffffffffffffffffffffffffffffffffffffffff1614806125c657508373ffffffffffffffffffffffffffffffffffffffff166125ae846105a6565b73ffffffffffffffffffffffffffffffffffffffff16145b806125d757506125d68185611b16565b5b91505092915050565b8273ffffffffffffffffffffffffffffffffffffffff16612600826107c3565b73ffffffffffffffffffffffffffffffffffffffff1614612656576040517f08c379a000000000000000000000000000000000000000000000000000000000815260040161264d90614a48565b60405180910390fd5b600073ffffffffffffffffffffffffffffffffffffffff168273ffffffffffffffffffffffffffffffffffffffff1614156126c6576040517f08c379a00000000000000000000000000000000000000000000000000000000081526004016126bd90614928565b60405180910390fd5b6126d1838383612ece565b6126dc600082612449565b6001600360008573ffffffffffffffffffffffffffffffffffffffff1673ffffffffffffffffffffffffffffffffffffffff168152602001908152602001600020600082825461272c9190614dd0565b925050819055506001600360008473ffffffffffffffffffffffffffffffffffffffff1673ffffffffffffffffffffffffffffffffffffffff16815260200190815260200160002060008282546127839190614cef565b92505081905550816002600083815260200190815260200160002060006101000a81548173ffffffffffffffffffffffffffffffffffffffff021916908373ffffffffffffffffffffffffffffffffffffffff160217905550808273ffffffffffffffffffffffffffffffffffffffff168473ffffffffffffffffffffffffffffffffffffffff167fddf252ad1be2c89b69c2b068fc378daa952ba7f163c4a11628f55a4df523b3ef60405160405180910390a4505050565b6128478484846125e0565b61285384848484612ed3565b612892576040517f08c379a0000000000000000000000000000000000000000000000000000000008152600401612889906148e8565b60405180910390fd5b50505050565b606060008214156128e0576040518060400160405280600181526020017f30000000000000000000000000000000000000000000000000000000000000008152509050612a40565b600082905060005b600082146129125780806128fb90614eec565b915050600a8261290b9190614d45565b91506128e8565b60008167ffffffffffffffff811115612954577f4e487b7100000000000000000000000000000000000000000000000000000000600052604160045260246000fd5b6040519080825280601f01601f1916602001820160405280156129865781602001600182028036833780820191505090505b5090505b60008514612a395760018261299f9190614dd0565b9150600a856129ae9190614f35565b60306129ba9190614cef565b60f81b8183815181106129f6577f4e487b7100000000000000000000000000000000000000000000000000000000600052603260045260246000fd5b60200101907effffffffffffffffffffffffffffffffffffffffffffffffffffffffffffff1916908160001a905350600a85612a329190614d45565b945061298a565b8093505050505b919050565b60606000825190506000811415612a6e5760405180602001604052806000815250915050612bfe565b60006003600283612a7f9190614cef565b612a899190614d45565b6004612a959190614d76565b90506000602082612aa69190614cef565b67ffffffffffffffff811115612ae5577f4e487b7100000000000000000000000000000000000000000000000000000000600052604160045260246000fd5b6040519080825280601f01601f191660200182016040528015612b175781602001600182028036833780820191505090505b50905060006040518060600160405280604081526020016150b9604091399050600181016020830160005b86811015612bbb5760038101905062ffffff818a015116603f8160121c168401518060081b905060ff603f83600c1c1686015116810190508060081b905060ff603f8360061c1686015116810190508060081b905060ff603f831686015116810190508060e01b90508084526004840193505050612b42565b506003860660018114612bd55760028114612be557612bf0565b613d3d60f01b6002830352612bf0565b603d60f81b60018303525b508484525050819450505050505b919050565b612c9b8282604051602401612c19929190614718565b6040516020818303038152906040527f4b5c4277000000000000000000000000000000000000000000000000000000007bffffffffffffffffffffffffffffffffffffffffffffffffffffffff19166020820180517bffffffffffffffffffffffffffffffffffffffffffffffffffffffff8381831617835250505050612ea5565b5050565b612d39838383604051602401612cb79392919061474f565b6040516020818303038152906040527ff362ca59000000000000000000000000000000000000000000000000000000007bffffffffffffffffffffffffffffffffffffffffffffffffffffffff19166020820180517bffffffffffffffffffffffffffffffffffffffffffffffffffffffff8381831617835250505050612ea5565b505050565b612dd68282604051602401612d5492919061487a565b6040516020818303038152906040527f9710a9d0000000000000000000000000000000000000000000000000000000007bffffffffffffffffffffffffffffffffffffffffffffffffffffffff19166020820180517bffffffffffffffffffffffffffffffffffffffffffffffffffffffff8381831617835250505050612ea5565b5050565b600081600001549050919050565b612e0282826040518060200160405280600081525061306a565b5050565b612ea0838383604051602401612e1e939291906148aa565b6040516020818303038152906040527f969cdd03000000000000000000000000000000000000000000000000000000007bffffffffffffffffffffffffffffffffffffffffffffffffffffffff19166020820180517bffffffffffffffffffffffffffffffffffffffffffffffffffffffff8381831617835250505050612ea5565b505050565b60008151905060006a636f6e736f6c652e6c6f679050602083016000808483855afa5050505050565b505050565b6000612ef48473ffffffffffffffffffffffffffffffffffffffff166130c5565b1561305d578373ffffffffffffffffffffffffffffffffffffffff1663150b7a02612f1d612441565b8786866040518563ffffffff1660e01b8152600401612f3f949392919061466d565b602060405180830381600087803b158015612f5957600080fd5b505af1925050508015612f8a57506040513d601f19601f82011682018060405250810190612f879190613682565b60015b61300d573d8060008114612fba576040519150601f19603f3d011682016040523d82523d6000602084013e612fbf565b606091505b50600081511415613005576040517f08c379a0000000000000000000000000000000000000000000000000000000008152600401612ffc906148e8565b60405180910390fd5b805181602001fd5b63150b7a0260e01b7bffffffffffffffffffffffffffffffffffffffffffffffffffffffff1916817bffffffffffffffffffffffffffffffffffffffffffffffffffffffff191614915050613062565b600190505b949350505050565b61307483836130d8565b6130816000848484612ed3565b6130c0576040517f08c379a00000000000000000000000000000000000000000000000000000000081526004016130b7906148e8565b60405180910390fd5b505050565b600080823b905060008111915050919050565b600073ffffffffffffffffffffffffffffffffffffffff168273ffffffffffffffffffffffffffffffffffffffff161415613148576040517f08c379a000000000000000000000000000000000000000000000000000000000815260040161313f906149e8565b60405180910390fd5b613151816123d5565b15613191576040517f08c379a000000000000000000000000000000000000000000000000000000000815260040161318890614908565b60405180910390fd5b61319d60008383612ece565b6001600360008473ffffffffffffffffffffffffffffffffffffffff1673ffffffffffffffffffffffffffffffffffffffff16815260200190815260200160002060008282546131ed9190614cef565b92505081905550816002600083815260200190815260200160002060006101000a81548173ffffffffffffffffffffffffffffffffffffffff021916908373ffffffffffffffffffffffffffffffffffffffff160217905550808273ffffffffffffffffffffffffffffffffffffffff16600073ffffffffffffffffffffffffffffffffffffffff167fddf252ad1be2c89b69c2b068fc378daa952ba7f163c4a11628f55a4df523b3ef60405160405180910390a45050565b60405180610100016040528060608152602001606081526020016000815260200160008152602001600081526020016000815260200160008152602001600081525090565b604051806101400160405280600081526020016060815260200160608152602001600081526020016000815260200160008152602001600081526020016000815260200160008152602001606081525090565b82805461334a90614eba565b90600052602060002090601f01602090048101928261336c57600085556133b3565b82601f1061338557805160ff19168380011785556133b3565b828001600101855582156133b3579182015b828111156133b2578251825591602001919060010190613397565b5b5090506133c091906133c4565b5090565b5b808211156133dd5760008160009055506001016133c5565b5090565b60006133f46133ef84614c32565b614c01565b90508281526020810184848401111561340c57600080fd5b613417848285614e78565b509392505050565b60008135905061342e81615033565b92915050565b6000813590506134438161504a565b92915050565b60008135905061345881615061565b92915050565b60008151905061346d81615061565b92915050565b600082601f83011261348457600080fd5b81356134948482602086016133e1565b91505092915050565b6000813590506134ac81615078565b92915050565b6000602082840312156134c457600080fd5b60006134d28482850161341f565b91505092915050565b600080604083850312156134ee57600080fd5b60006134fc8582860161341f565b925050602061350d8582860161341f565b9150509250929050565b60008060006060848603121561352c57600080fd5b600061353a8682870161341f565b935050602061354b8682870161341f565b925050604061355c8682870161349d565b9150509250925092565b6000806000806080858703121561357c57600080fd5b600061358a8782880161341f565b945050602061359b8782880161341f565b93505060406135ac8782880161349d565b925050606085013567ffffffffffffffff8111156135c957600080fd5b6135d587828801613473565b91505092959194509250565b600080604083850312156135f457600080fd5b60006136028582860161341f565b925050602061361385828601613434565b9150509250929050565b6000806040838503121561363057600080fd5b600061363e8582860161341f565b925050602061364f8582860161349d565b9150509250929050565b60006020828403121561366b57600080fd5b600061367984828501613449565b91505092915050565b60006020828403121561369457600080fd5b60006136a28482850161345e565b91505092915050565b6000602082840312156136bd57600080fd5b60006136cb8482850161349d565b91505092915050565b60006136e0838361424f565b905092915050565b6136f181614e04565b82525050565b600061370282614c72565b61370c8185614ca0565b93508360208202850161371e85614c62565b8060005b8581101561375a578484038952815161373b85826136d4565b945061374683614c93565b925060208a01995050600181019050613722565b50829750879550505050505092915050565b61377581614e16565b82525050565b600061378682614c7d565b6137908185614cb1565b93506137a0818560208601614e87565b6137a981615022565b840191505092915050565b60006137bf82614c88565b6137c98185614cc2565b93506137d9818560208601614e87565b6137e281615022565b840191505092915050565b60006137f882614c88565b6138028185614cd3565b9350613812818560208601614e87565b61381b81615022565b840191505092915050565b600061383182614c88565b61383b8185614ce4565b935061384b818560208601614e87565b80840191505092915050565b6000613864600283614ce4565b91507f7d2c0000000000000000000000000000000000000000000000000000000000006000830152600282019050919050565b60006138a4600b83614ce4565b91507f202d2d204e465420233a200000000000000000000000000000000000000000006000830152600b82019050919050565b60006138e4600583614ce4565b91507f227d205d7d0000000000000000000000000000000000000000000000000000006000830152600582019050919050565b6000613924603283614cd3565b91507f4552433732313a207472616e7366657220746f206e6f6e20455243373231526560008301527f63656976657220696d706c656d656e74657200000000000000000000000000006020830152604082019050919050565b600061398a601c83614cd3565b91507f4552433732313a20746f6b656e20616c7265616479206d696e746564000000006000830152602082019050919050565b60006139ca602283614ce4565b91507f7b202274726169745f74797065223a202241726d6f72222c202276616c75652260008301527f3a200000000000000000000000000000000000000000000000000000000000006020830152602282019050919050565b6000613a30600e83614ce4565b91507f2c20226d61785f76616c7565223a0000000000000000000000000000000000006000830152600e82019050919050565b6000613a70602483614cd3565b91507f4552433732313a207472616e7366657220746f20746865207a65726f2061646460008301527f72657373000000000000000000000000000000000000000000000000000000006020830152604082019050919050565b6000613ad6601983614cd3565b91507f4552433732313a20617070726f766520746f2063616c6c6572000000000000006000830152602082019050919050565b6000613b16605983614ce4565b91507f222c20226465736372697074696f6e223a2022546869732069732061204e465460008301527f2074686174206c6574732070656f706c6520706c617920436174732076732e2060208301527f446f677321222c2022696d616765223a2022697066733a2f2f000000000000006040830152605982019050919050565b6000613ba2602c83614cd3565b91507f4552433732313a206f70657261746f7220717565727920666f72206e6f6e657860008301527f697374656e7420746f6b656e00000000000000000000000000000000000000006020830152604082019050919050565b6000613c08602a83614ce4565b91507f7b202274726169745f74797065223a202241747461636b2044616d616765222c60008301527f202276616c7565223a20000000000000000000000000000000000000000000006020830152602a82019050919050565b6000613c6e603883614cd3565b91507f4552433732313a20617070726f76652063616c6c6572206973206e6f74206f7760008301527f6e6572206e6f7220617070726f76656420666f7220616c6c00000000000000006020830152604082019050919050565b6000613cd4602a83614cd3565b91507f4552433732313a2062616c616e636520717565727920666f7220746865207a6560008301527f726f2061646472657373000000000000000000000000000000000000000000006020830152604082019050919050565b6000613d3a602983614cd3565b91507f4552433732313a206f776e657220717565727920666f72206e6f6e657869737460008301527f656e7420746f6b656e00000000000000000000000000000000000000000000006020830152604082019050919050565b6000613da0602083614cd3565b91507f4552433732313a206d696e7420746f20746865207a65726f20616464726573736000830152602082019050919050565b6000613de0602283614cd3565b91507f4572726f723a20626f7373206d757374206861766520485020746f206174746160008301527f636b0000000000000000000000000000000000000000000000000000000000006020830152604082019050919050565b6000613e46602c83614cd3565b91507f4552433732313a20617070726f76656420717565727920666f72206e6f6e657860008301527f697374656e7420746f6b656e00000000000000000000000000000000000000006020830152604082019050919050565b6000613eac602983614cd3565b91507f4552433732313a207472616e73666572206f6620746f6b656e2074686174206960008301527f73206e6f74206f776e00000000000000000000000000000000000000000000006020830152604082019050919050565b6000613f12602983614ce4565b91507f7b202274726169745f74797065223a20224d616769632044616d616765222c2060008301527f2276616c7565223a2000000000000000000000000000000000000000000000006020830152602982019050919050565b6000613f78600a83614ce4565b91507f7b226e616d65223a2022000000000000000000000000000000000000000000006000830152600a82019050919050565b6000613fb8602783614cd3565b91507f4572726f723a20636861726163746572206d757374206861766520485020746f60008301527f2061747461636b000000000000000000000000000000000000000000000000006020830152604082019050919050565b600061401e602183614cd3565b91507f4552433732313a20617070726f76616c20746f2063757272656e74206f776e6560008301527f72000000000000000000000000000000000000000000000000000000000000006020830152604082019050919050565b6000614084601d83614ce4565b91507f646174613a6170706c69636174696f6e2f6a736f6e3b6261736536342c0000006000830152601d82019050919050565b60006140c4603183614cd3565b91507f4552433732313a207472616e736665722063616c6c6572206973206e6f74206f60008301527f776e6572206e6f7220617070726f7665640000000000000000000000000000006020830152604082019050919050565b600061412a603d83614ce4565b91507f222c202261747472696275746573223a205b207b202274726169745f7479706560008301527f223a20224865616c746820506f696e7473222c202276616c7565223a200000006020830152603d82019050919050565b6000614190602983614ce4565b91507f7b202274726169745f74797065223a20224d6167696320526573697374222c2060008301527f2276616c7565223a2000000000000000000000000000000000000000000000006020830152602982019050919050565b60006141f6602283614ce4565b91507f7b202274726169745f74797065223a20225465616d222c202276616c7565223a60008301527f20220000000000000000000000000000000000000000000000000000000000006020830152602282019050919050565b60006101408301600083015161426860008601826144d6565b506020830151848203602086015261428082826137b4565b9150506040830151848203604086015261429a82826137b4565b91505060608301516142af60608601826144d6565b5060808301516142c260808601826144d6565b5060a08301516142d560a08601826144d6565b5060c08301516142e860c08601826144d6565b5060e08301516142fb60e08601826144d6565b506101008301516143106101008601826144d6565b5061012083015184820361012086015261432a82826137b4565b9150508091505092915050565b60006101408301600083015161435060008601826144d6565b506020830151848203602086015261436882826137b4565b9150506040830151848203604086015261438282826137b4565b915050606083015161439760608601826144d6565b5060808301516143aa60808601826144d6565b5060a08301516143bd60a08601826144d6565b5060c08301516143d060c08601826144d6565b5060e08301516143e360e08601826144d6565b506101008301516143f86101008601826144d6565b5061012083015184820361012086015261441282826137b4565b9150508091505092915050565b600061010083016000830151848203600086015261443d82826137b4565b9150506020830151848203602086015261445782826137b4565b915050604083015161446c60408601826144d6565b50606083015161447f60608601826144d6565b50608083015161449260808601826144d6565b5060a08301516144a560a08601826144d6565b5060c08301516144b860c08601826144d6565b5060e08301516144cb60e08601826144d6565b508091505092915050565b6144df81614e6e565b82525050565b6144ee81614e6e565b82525050565b60006144ff82613f6b565b915061450b828d613826565b915061451682613897565b9150614522828c613826565b915061452d82613b09565b9150614539828b613826565b91506145448261411d565b9150614550828a613826565b915061455b82613a23565b91506145678289613826565b915061457282613857565b915061457d82613bfb565b91506145898288613826565b915061459482613857565b915061459f82613f05565b91506145ab8287613826565b91506145b682613857565b91506145c1826139bd565b91506145cd8286613826565b91506145d882613857565b91506145e382614183565b91506145ef8285613826565b91506145fa82613857565b9150614605826141e9565b91506146118284613826565b915061461c826138d7565b91508190509b9a5050505050505050505050565b600061463b82614077565b91506146478284613826565b915081905092915050565b600060208201905061466760008301846136e8565b92915050565b600060808201905061468260008301876136e8565b61468f60208301866136e8565b61469c60408301856144e5565b81810360608301526146ae818461377b565b905095945050505050565b600060208201905081810360008301526146d381846136f7565b905092915050565b60006020820190506146f0600083018461376c565b92915050565b6000602082019050818103600083015261471081846137ed565b905092915050565b6000604082019050818103600083015261473281856137ed565b9050818103602083015261474681846137ed565b90509392505050565b6000606082019050818103600083015261476981866137ed565b9050818103602083015261477d81856137ed565b905061478c60408301846144e5565b949350505050565b600060808201905081810360008301526147ae81876137ed565b905081810360208301526147c281866137ed565b90506147d160408301856144e5565b81810360608301526147e381846137ed565b905095945050505050565b6000610100820190508181036000830152614809818b6137ed565b9050818103602083015261481d818a6137ed565b905061482c60408301896144e5565b61483960608301886144e5565b61484660808301876144e5565b61485360a08301866144e5565b61486060c08301856144e5565b61486d60e08301846144e5565b9998505050505050505050565b6000604082019050818103600083015261489481856137ed565b90506148a360208301846144e5565b9392505050565b600060608201905081810360008301526148c481866137ed565b90506148d360208301856144e5565b6148e060408301846144e5565b949350505050565b6000602082019050818103600083015261490181613917565b9050919050565b600060208201905081810360008301526149218161397d565b9050919050565b6000602082019050818103600083015261494181613a63565b9050919050565b6000602082019050818103600083015261496181613ac9565b9050919050565b6000602082019050818103600083015261498181613b95565b9050919050565b600060208201905081810360008301526149a181613c61565b9050919050565b600060208201905081810360008301526149c181613cc7565b9050919050565b600060208201905081810360008301526149e181613d2d565b9050919050565b60006020820190508181036000830152614a0181613d93565b9050919050565b60006020820190508181036000830152614a2181613dd3565b9050919050565b60006020820190508181036000830152614a4181613e39565b9050919050565b60006020820190508181036000830152614a6181613e9f565b9050919050565b60006020820190508181036000830152614a8181613fab565b9050919050565b60006020820190508181036000830152614aa181614011565b9050919050565b60006020820190508181036000830152614ac1816140b7565b9050919050565b60006020820190508181036000830152614ae28184614337565b905092915050565b60006020820190508181036000830152614b04818461441f565b905092915050565b6000602082019050614b2160008301846144e5565b92915050565b600061014082019050614b3d600083018d6144e5565b8181036020830152614b4f818c6137ed565b90508181036040830152614b63818b6137ed565b9050614b72606083018a6144e5565b614b7f60808301896144e5565b614b8c60a08301886144e5565b614b9960c08301876144e5565b614ba660e08301866144e5565b614bb46101008301856144e5565b818103610120830152614bc781846137ed565b90509b9a5050505050505050505050565b6000604082019050614bed60008301856144e5565b614bfa60208301846144e5565b9392505050565b6000604051905081810181811067ffffffffffffffff82111715614c2857614c27614ff3565b5b8060405250919050565b600067ffffffffffffffff821115614c4d57614c4c614ff3565b5b601f19601f8301169050602081019050919050565b6000819050602082019050919050565b600081519050919050565b600081519050919050565b600081519050919050565b6000602082019050919050565b600082825260208201905092915050565b600082825260208201905092915050565b600082825260208201905092915050565b600082825260208201905092915050565b600081905092915050565b6000614cfa82614e6e565b9150614d0583614e6e565b9250827fffffffffffffffffffffffffffffffffffffffffffffffffffffffffffffffff03821115614d3a57614d39614f66565b5b828201905092915050565b6000614d5082614e6e565b9150614d5b83614e6e565b925082614d6b57614d6a614f95565b5b828204905092915050565b6000614d8182614e6e565b9150614d8c83614e6e565b9250817fffffffffffffffffffffffffffffffffffffffffffffffffffffffffffffffff0483118215151615614dc557614dc4614f66565b5b828202905092915050565b6000614ddb82614e6e565b9150614de683614e6e565b925082821015614df957614df8614f66565b5b828203905092915050565b6000614e0f82614e4e565b9050919050565b60008115159050919050565b60007fffffffff0000000000000000000000000000000000000000000000000000000082169050919050565b600073ffffffffffffffffffffffffffffffffffffffff82169050919050565b6000819050919050565b82818337600083830152505050565b60005b83811015614ea5578082015181840152602081019050614e8a565b83811115614eb4576000848401525b50505050565b60006002820490506001821680614ed257607f821691505b60208210811415614ee657614ee5614fc4565b5b50919050565b6000614ef782614e6e565b91507fffffffffffffffffffffffffffffffffffffffffffffffffffffffffffffffff821415614f2a57614f29614f66565b5b600182019050919050565b6000614f4082614e6e565b9150614f4b83614e6e565b925082614f5b57614f5a614f95565b5b828206905092915050565b7f4e487b7100000000000000000000000000000000000000000000000000000000600052601160045260246000fd5b7f4e487b7100000000000000000000000000000000000000000000000000000000600052601260045260246000fd5b7f4e487b7100000000000000000000000000000000000000000000000000000000600052602260045260246000fd5b7f4e487b7100000000000000000000000000000000000000000000000000000000600052604160045260246000fd5b6000601f19601f8301169050919050565b61503c81614e04565b811461504757600080fd5b50565b61505381614e16565b811461505e57600080fd5b50565b61506a81614e22565b811461507557600080fd5b50565b61508181614e6e565b811461508c57600080fd5b5056fe5465656d6f2061747461636b656420706c617965722e204e657720706c617965722068703a2025730a4142434445464748494a4b4c4d4e4f505152535455565758595a6162636465666768696a6b6c6d6e6f707172737475767778797a303132333435363738392b2f4d696e746564204e465420772f20746f6b656e496420257320616e6420636861726163746572496e6465782025730a506c6179657220772f206368617261637465722025732061626f757420746f2061747461636b2ea26469706673582212201ce6ffcd7d29d96f6f94d071bf5a80b8c21d8c4c55b89415910eea12c7a7012264736f6c63430008000033446f6e6520696e697469616c697a696e6720257320772f204850202525732c20696d67202573446f6e6520696e697469616c697a696e6720626f737320257320772f2048502025732c20696d67202573",
  "linkReferences": {},
  "deployedLinkReferences": {}
}